{
  "_format": "hh-sol-artifact-1",
  "contractName": "SwapMultiHop",
  "sourceName": "contracts/SwapMultiHop.sol",
  "abi": [
    {
      "inputs": [],
      "name": "DAI",
      "outputs": [
        {
          "internalType": "address",
          "name": "",
          "type": "address"
        }
      ],
      "stateMutability": "view",
      "type": "function"
    },
    {
      "inputs": [],
      "name": "USDC",
      "outputs": [
        {
          "internalType": "address",
          "name": "",
          "type": "address"
        }
      ],
      "stateMutability": "view",
      "type": "function"
    },
    {
      "inputs": [],
      "name": "WETH9",
      "outputs": [
        {
          "internalType": "address",
          "name": "",
          "type": "address"
        }
      ],
      "stateMutability": "view",
      "type": "function"
    },
    {
      "inputs": [
        {
          "internalType": "uint256",
          "name": "amountIn",
          "type": "uint256"
        }
      ],
      "name": "swapExactInputMultihop",
      "outputs": [
        {
          "internalType": "uint256",
          "name": "amountOut",
          "type": "uint256"
        }
      ],
      "stateMutability": "nonpayable",
      "type": "function"
    },
    {
      "inputs": [
        {
          "internalType": "uint256",
          "name": "amountOut",
          "type": "uint256"
        },
        {
          "internalType": "uint256",
          "name": "amountInMaximum",
          "type": "uint256"
        }
      ],
      "name": "swapExactOutputMultihop",
      "outputs": [
        {
          "internalType": "uint256",
          "name": "amountIn",
          "type": "uint256"
        }
      ],
      "stateMutability": "nonpayable",
      "type": "function"
    },
    {
      "inputs": [],
      "name": "swapRouter",
      "outputs": [
        {
          "internalType": "contract ISwapRouter",
          "name": "",
          "type": "address"
        }
      ],
      "stateMutability": "view",
      "type": "function"
    }
  ],
  "bytecode": "0x608060405234801561001057600080fd5b50610e02806100206000396000f3fe608060405234801561001057600080fd5b50600436106100625760003560e01c80633b85cf6a146100675780634aa4a4fc1461009757806389a30271146100b5578063c31c9c07146100d3578063e0bab4c4146100f1578063edd835571461010f575b600080fd5b610081600480360381019061007c9190610787565b61013f565b60405161008e91906107d6565b60405180910390f35b61009f61033c565b6040516100ac9190610832565b60405180910390f35b6100bd610354565b6040516100ca9190610832565b60405180910390f35b6100db61036c565b6040516100e891906108ac565b60405180910390f35b6100f9610384565b6040516101069190610832565b60405180910390f35b610129600480360381019061012491906108c7565b61039c565b60405161013691906107d6565b60405180910390f35b600061016173c02aaa39b223fe8d0a0e5c4f27ead9083c756cc233308561049f565b61019473c02aaa39b223fe8d0a0e5c4f27ead9083c756cc273e592427a0aece92de3edee1f18e0157c05861564846105f7565b60006040518060a00160405280736b175474e89094c44da98b954eedeac495271d0f606473a0b86991c6218b36c1d19d4a2e9eb0ce3606eb48610bb873c02aaa39b223fe8d0a0e5c4f27ead9083c756cc26040516020016101f9959493929190610981565b60405160208183030381529060405281526020013373ffffffffffffffffffffffffffffffffffffffff16815260200142815260200185815260200184815250905073e592427a0aece92de3edee1f18e0157c0586156473ffffffffffffffffffffffffffffffffffffffff1663f28c0498826040518263ffffffff1660e01b81526004016102889190610b04565b6020604051808303816000875af11580156102a7573d6000803e3d6000fd5b505050506040513d601f19601f820116820180604052508101906102cb9190610b3b565b9150828210156103355761030973c02aaa39b223fe8d0a0e5c4f27ead9083c756cc273e592427a0aece92de3edee1f18e0157c0586156460006105f7565b61033473c02aaa39b223fe8d0a0e5c4f27ead9083c756cc23033858761032f9190610b97565b61049f565b5b5092915050565b73c02aaa39b223fe8d0a0e5c4f27ead9083c756cc281565b73a0b86991c6218b36c1d19d4a2e9eb0ce3606eb4881565b73e592427a0aece92de3edee1f18e0157c0586156481565b736b175474e89094c44da98b954eedeac495271d0f81565b60006103be73c02aaa39b223fe8d0a0e5c4f27ead9083c756cc233308561049f565b6103f173c02aaa39b223fe8d0a0e5c4f27ead9083c756cc273e592427a0aece92de3edee1f18e0157c05861564846105f7565b60006040518060a0016040528073c02aaa39b223fe8d0a0e5c4f27ead9083c756cc2610bb873a0b86991c6218b36c1d19d4a2e9eb0ce3606eb486064736b175474e89094c44da98b954eedeac495271d0f604051602001610456959493929190610981565b60405160208183030381529060405281526020013373ffffffffffffffffffffffffffffffffffffffff1681526020014281526020018481526020016000815250905050919050565b6000808573ffffffffffffffffffffffffffffffffffffffff166323b872dd60e01b8686866040516024016104d693929190610bcb565b604051602081830303815290604052907bffffffffffffffffffffffffffffffffffffffffffffffffffffffff19166020820180517bffffffffffffffffffffffffffffffffffffffffffffffffffffffff83818316178352505050506040516105409190610c3e565b6000604051808303816000865af19150503d806000811461057d576040519150601f19603f3d011682016040523d82523d6000602084013e610582565b606091505b50915091508180156105b057506000815114806105af5750808060200190518101906105ae9190610c8d565b5b5b6105ef576040517f08c379a00000000000000000000000000000000000000000000000000000000081526004016105e690610d17565b60405180910390fd5b505050505050565b6000808473ffffffffffffffffffffffffffffffffffffffff1663095ea7b360e01b858560405160240161062c929190610d37565b604051602081830303815290604052907bffffffffffffffffffffffffffffffffffffffffffffffffffffffff19166020820180517bffffffffffffffffffffffffffffffffffffffffffffffffffffffff83818316178352505050506040516106969190610c3e565b6000604051808303816000865af19150503d80600081146106d3576040519150601f19603f3d011682016040523d82523d6000602084013e6106d8565b606091505b509150915081801561070657506000815114806107055750808060200190518101906107049190610c8d565b5b5b610745576040517f08c379a000000000000000000000000000000000000000000000000000000000815260040161073c90610dac565b60405180910390fd5b5050505050565b600080fd5b6000819050919050565b61076481610751565b811461076f57600080fd5b50565b6000813590506107818161075b565b92915050565b6000806040838503121561079e5761079d61074c565b5b60006107ac85828601610772565b92505060206107bd85828601610772565b9150509250929050565b6107d081610751565b82525050565b60006020820190506107eb60008301846107c7565b92915050565b600073ffffffffffffffffffffffffffffffffffffffff82169050919050565b600061081c826107f1565b9050919050565b61082c81610811565b82525050565b60006020820190506108476000830184610823565b92915050565b6000819050919050565b600061087261086d610868846107f1565b61084d565b6107f1565b9050919050565b600061088482610857565b9050919050565b600061089682610879565b9050919050565b6108a68161088b565b82525050565b60006020820190506108c1600083018461089d565b92915050565b6000602082840312156108dd576108dc61074c565b5b60006108eb84828501610772565b91505092915050565b60008160601b9050919050565b600061090c826108f4565b9050919050565b600061091e82610901565b9050919050565b61093661093182610811565b610913565b82525050565b600062ffffff82169050919050565b60008160e81b9050919050565b60006109638261094b565b9050919050565b61097b6109768261093c565b610958565b82525050565b600061098d8288610925565b60148201915061099d828761096a565b6003820191506109ad8286610925565b6014820191506109bd828561096a565b6003820191506109cd8284610925565b6014820191508190509695505050505050565b600081519050919050565b600082825260208201905092915050565b60005b83811015610a1a5780820151818401526020810190506109ff565b60008484015250505050565b6000601f19601f8301169050919050565b6000610a42826109e0565b610a4c81856109eb565b9350610a5c8185602086016109fc565b610a6581610a26565b840191505092915050565b610a7981610811565b82525050565b610a8881610751565b82525050565b600060a0830160008301518482036000860152610aab8282610a37565b9150506020830151610ac06020860182610a70565b506040830151610ad36040860182610a7f565b506060830151610ae66060860182610a7f565b506080830151610af96080860182610a7f565b508091505092915050565b60006020820190508181036000830152610b1e8184610a8e565b905092915050565b600081519050610b358161075b565b92915050565b600060208284031215610b5157610b5061074c565b5b6000610b5f84828501610b26565b91505092915050565b7f4e487b7100000000000000000000000000000000000000000000000000000000600052601160045260246000fd5b6000610ba282610751565b9150610bad83610751565b9250828203905081811115610bc557610bc4610b68565b5b92915050565b6000606082019050610be06000830186610823565b610bed6020830185610823565b610bfa60408301846107c7565b949350505050565b600081905092915050565b6000610c18826109e0565b610c228185610c02565b9350610c328185602086016109fc565b80840191505092915050565b6000610c4a8284610c0d565b915081905092915050565b60008115159050919050565b610c6a81610c55565b8114610c7557600080fd5b50565b600081519050610c8781610c61565b92915050565b600060208284031215610ca357610ca261074c565b5b6000610cb184828501610c78565b91505092915050565b600082825260208201905092915050565b7f5354460000000000000000000000000000000000000000000000000000000000600082015250565b6000610d01600383610cba565b9150610d0c82610ccb565b602082019050919050565b60006020820190508181036000830152610d3081610cf4565b9050919050565b6000604082019050610d4c6000830185610823565b610d5960208301846107c7565b9392505050565b7f5341000000000000000000000000000000000000000000000000000000000000600082015250565b6000610d96600283610cba565b9150610da182610d60565b602082019050919050565b60006020820190508181036000830152610dc581610d89565b905091905056fea2646970667358221220af1ec2e239c203a7d280de14c9d05386957bc935ce84c3c78b607f7ff8e49eb364736f6c63430008110033",
  "linkReferences": {},
  "deployedLinkReferences": {}
}